{
  "_format": "hh-sol-artifact-1",
  "contractName": "HelloWorld",
  "sourceName": "contracts/helloWorld.sol",
  "abi": [
    {
      "inputs": [],
      "stateMutability": "nonpayable",
      "type": "constructor"
    },
    {
      "inputs": [],
      "name": "getMessage",
      "outputs": [
        {
          "internalType": "string",
          "name": "",
          "type": "string"
        }
      ],
      "stateMutability": "view",
      "type": "function"
    },
    {
      "inputs": [],
      "name": "getTotal",
      "outputs": [
        {
          "internalType": "uint256",
          "name": "",
          "type": "uint256"
        }
      ],
      "stateMutability": "view",
      "type": "function"
    },
    {
      "inputs": [],
      "name": "sayHello",
      "outputs": [],
      "stateMutability": "nonpayable",
      "type": "function"
    }
  ],
  "bytecode": "0x60806040526040518060400160405280600b81526020017f48656c6c6f20576f726c64000000000000000000000000000000000000000000815250600090816200004a9190620003f0565b503480156200005857600080fd5b50620000a46040518060400160405280602081526020017f54686973206973206f757220666972737420736d61727420636f6e7472616374815250620000aa60201b620001c31760201c565b6200058a565b6200014a81604051602401620000c1919062000566565b6040516020818303038152906040527f41304fac000000000000000000000000000000000000000000000000000000007bffffffffffffffffffffffffffffffffffffffffffffffffffffffff19166020820180517bffffffffffffffffffffffffffffffffffffffffffffffffffffffff83818316178352505050506200014d60201b60201c565b50565b60008151905060006a636f6e736f6c652e6c6f679050602083016000808483855afa5050505050565b600081519050919050565b7f4e487b7100000000000000000000000000000000000000000000000000000000600052604160045260246000fd5b7f4e487b7100000000000000000000000000000000000000000000000000000000600052602260045260246000fd5b60006002820490506001821680620001f857607f821691505b6020821081036200020e576200020d620001b0565b5b50919050565b60008190508160005260206000209050919050565b60006020601f8301049050919050565b600082821b905092915050565b600060088302620002787fffffffffffffffffffffffffffffffffffffffffffffffffffffffffffffffff8262000239565b62000284868362000239565b95508019841693508086168417925050509392505050565b6000819050919050565b6000819050919050565b6000620002d1620002cb620002c5846200029c565b620002a6565b6200029c565b9050919050565b6000819050919050565b620002ed83620002b0565b62000305620002fc82620002d8565b84845462000246565b825550505050565b600090565b6200031c6200030d565b62000329818484620002e2565b505050565b5b8181101562000351576200034560008262000312565b6001810190506200032f565b5050565b601f821115620003a0576200036a8162000214565b620003758462000229565b8101602085101562000385578190505b6200039d620003948562000229565b8301826200032e565b50505b505050565b600082821c905092915050565b6000620003c560001984600802620003a5565b1980831691505092915050565b6000620003e08383620003b2565b9150826002028217905092915050565b620003fb8262000176565b67ffffffffffffffff81111562000417576200041662000181565b5b620004238254620001df565b6200043082828562000355565b600060209050601f83116001811462000468576000841562000453578287015190505b6200045f8582620003d2565b865550620004cf565b601f198416620004788662000214565b60005b82811015620004a2578489015182556001820191506020850194506020810190506200047b565b86831015620004c25784890151620004be601f891682620003b2565b8355505b6001600288020188555050505b505050505050565b600082825260208201905092915050565b60005b8381101562000508578082015181840152602081019050620004eb565b60008484015250505050565b6000601f19601f8301169050919050565b6000620005328262000176565b6200053e8185620004d7565b935062000550818560208601620004e8565b6200055b8162000514565b840191505092915050565b6000602082019050818103600083015262000582818462000525565b905092915050565b61063d806200059a6000396000f3fe608060405234801561001057600080fd5b50600436106100415760003560e01c8063775a25e314610046578063ce6d41de14610064578063ef5fb05b14610082575b600080fd5b61004e61008c565b60405161005b91906103d6565b60405180910390f35b61006c6100d7565b6040516100799190610481565b60405180910390f35b61008a610169565b005b60006100cf6040518060400160405280601a81526020017f4e756d626572206f6620746f74616c2068656c6c6f2069733a2000000000000081525060015461025c565b600154905090565b6060600080546100e6906104d2565b80601f0160208091040260200160405190810160405280929190818152602001828054610112906104d2565b801561015f5780601f106101345761010080835404028352916020019161015f565b820191906000526020600020905b81548152906001019060200180831161014257829003601f168201915b5050505050905090565b600180600082825461017b9190610532565b925050819055506101c1336040518060400160405280600a81526020017f736169642068656c6c6f000000000000000000000000000000000000000000008152506102f8565b565b610259816040516024016101d79190610481565b6040516020818303038152906040527f41304fac000000000000000000000000000000000000000000000000000000007bffffffffffffffffffffffffffffffffffffffffffffffffffffffff19166020820180517bffffffffffffffffffffffffffffffffffffffffffffffffffffffff8381831617835250505050610394565b50565b6102f48282604051602401610272929190610566565b6040516020818303038152906040527fb60e72cc000000000000000000000000000000000000000000000000000000007bffffffffffffffffffffffffffffffffffffffffffffffffffffffff19166020820180517bffffffffffffffffffffffffffffffffffffffffffffffffffffffff8381831617835250505050610394565b5050565b610390828260405160240161030e9291906105d7565b6040516020818303038152906040527f759f86bb000000000000000000000000000000000000000000000000000000007bffffffffffffffffffffffffffffffffffffffffffffffffffffffff19166020820180517bffffffffffffffffffffffffffffffffffffffffffffffffffffffff8381831617835250505050610394565b5050565b60008151905060006a636f6e736f6c652e6c6f679050602083016000808483855afa5050505050565b6000819050919050565b6103d0816103bd565b82525050565b60006020820190506103eb60008301846103c7565b92915050565b600081519050919050565b600082825260208201905092915050565b60005b8381101561042b578082015181840152602081019050610410565b60008484015250505050565b6000601f19601f8301169050919050565b6000610453826103f1565b61045d81856103fc565b935061046d81856020860161040d565b61047681610437565b840191505092915050565b6000602082019050818103600083015261049b8184610448565b905092915050565b7f4e487b7100000000000000000000000000000000000000000000000000000000600052602260045260246000fd5b600060028204905060018216806104ea57607f821691505b6020821081036104fd576104fc6104a3565b5b50919050565b7f4e487b7100000000000000000000000000000000000000000000000000000000600052601160045260246000fd5b600061053d826103bd565b9150610548836103bd565b92508282019050808211156105605761055f610503565b5b92915050565b600060408201905081810360008301526105808185610448565b905061058f60208301846103c7565b9392505050565b600073ffffffffffffffffffffffffffffffffffffffff82169050919050565b60006105c182610596565b9050919050565b6105d1816105b6565b82525050565b60006040820190506105ec60008301856105c8565b81810360208301526105fe8184610448565b9050939250505056fea264697066735822122075e8ff85cbe508b4fb64680b6b6ca0194b97b9be74a9a26e00f9d36a9c8cf47364736f6c63430008110033",
  "linkReferences": {},
  "deployedLinkReferences": {}
}